:020000040000FA
:10000000A0070020BD010000C5010000C7010000DD
:1000100000000000000000000000000000000000E0
:10002000000000000000000000000000C901000006
:100030000000000000000000CB010000CD01000026
:10004000972D0000CB430000CF010000CF0100003E
:1000500041430000CF010000D3430000CF01000066
:10006000DB430000CF010000F5430000CF0100009A
:10007000B1440000CF010000CF010000CF0100001B
:10008000CF0100000000000000000000034885468A
:1000900004F030FF004800473D3B0000A00700206F
:1000A0003D49C96A0F22920211400122D202891AE7
:1000B0000AD0891A05D05200891A08D13749086830
:1000C0002DE00120C0032AE03549086827E03249C5
:1000D000C96807221202114001235B02CA1A994221
:1000E00013D006DC002914D0FF390139002912D1C0
:1000F0000DE0D11FF939002905D0FF390139002958
:1001000009D1284809E0284807E0284805E02848A0
:1001100003E0284801E0002000BF00BF00BF00BF8F
:10012000704710B5FFF7BCFF04461B484068010745
:10013000090F2046C84004461F480460204610BDF1
:100140001848704716480068704710B504461448B0
:1001500004601148C06A0121C9020840002801D08A
:10016000FFF7DFFF10BD70470120C00370477D20FF
:10017000C000704709480068704710B5044607483A
:1001800004600548C06A012149030840002801D0E5
:10019000FFF7C7FF10BD000000800C4004000020E6
:1001A00000000020406F4001809FD500C0D8A7000C
:1001B00040B56400804F12000800002004488047CA
:1001C00004480047FEE7FEE7FEE7FEE7FEE7FEE73E
:1001D000670100008D000000FFB587B00D46144692
:1001E0001E46684605810421418100960390012145
:1001F00002A8018101A905910221018202A90798A3
:1002000000F0A2F90746002F04D0002020603846F5
:100210000BB0F0BD68460079010268464079FC22C7
:100220001040081820600220F2E7F0B587B00746BA
:100230000C461546684604810121418100950390D2
:1002400002A8018101A905910021018202A9384675
:1002500000F07AF90646002E02D0304607B0F0BD15
:100260000020FBE7F0B587B007460D461446684608
:1002700005810421418184210171B821417101A8C6
:100280000390022102A801816946059101210182A2
:1002900002A9384600F058F90646002E04D0002086
:1002A0002070304607B0F0BD68460078207000200E
:1002B000F8E770B504460D46F52229462046FFF7BB
:1002C000B4FF0646304670BDF0B587B007460D4610
:1002D0001446684605810221418101A8039002A8C5
:1002E000018101A905910221018202A9384600F08D
:1002F0002BF90646002E04D000202060304607B0BF
:10030000F0BD68460079010268464079FC22104041
:10031000081820600220F2E7FFB581B007461546B5
:100320001C462A4638460299FFF7CEFF0646022EA3
:1003300007D15A4928684843400B5949401A286058
:1003400003E00020C04305B0F0BDE023224638465C
:100350000299FFF741FF0646022E07D15149206856
:10036000484340135049401A206002E00020C04337
:10037000E9E70020E7E7FFB581B0074615461C46D0
:10038000E5232A4638460299FFF726FF0646022E45
:1003900007D1424928684843400B4149401A286028
:1003A00003E00020C04305B0F0BDE02322463846FC
:1003B0000299FFF711FF0646022E07D1394920683E
:1003C000484340133849401A206002E00020C043EF
:1003D000E9E70020E7E7F0B587B007460C46154689
:1003E00068460481012141815021017045700390CC
:1003F000022102A8018101A905910021018202A91F
:10040000384600F0A1F80646002E02D0304607B06C
:10041000F0BD0020FBE7F8B504460D4616460E2257
:1004200029462046FFF7D7FFEE23324629462046CD
:10043000FFF7D2FE0746092229462046FFF7CBFFE9
:10044000022F02D00020C043F8BD0020FCE7F0B529
:1004500089B006460D46144668460582042141824D
:10046000FC210171C921417101A80590022104A854
:10047000018102A907910821018204A9304600F0F8
:1004800063F80746002F02D0002009B0F0BD002C11
:1004900002D06846007A20700120F6E7093D00008E
:1004A00070170000CD55000002B70000F0B585B010
:1004B000044601212F4800F01EFF2F492068884282
:1004C00001D12E4E01E005B0F0BD0121304600F013
:1004D00012FF6179207901230D2201F022FBE179DD
:1004E000A07901230D2201F01CFB002513E02079E7
:1004F000617901228A4024234343214FDB191A6189
:1005000000BF2079617901228A4024234343DB190B
:100510005A6100BF6D1C092DE9DB207A000203211E
:100520000843216888630121684601704170206991
:100530000290E0680190217D684601736946206859
:1005400001F0B6FF00BFBEE7F8B505460E460D4FF9
:100550003146284602F06DF9044603E0284601F0D2
:10056000CEFF0446012C03D138467F1E0028F5D16A
:100570002046F8BD4081040000A0004000B2040005
:1005800000600040E093040000BF0146401E0029C7
:10059000FBD170471120000200BF0146401E002918
:1005A000FBD1704770B504460D461646002E09D0A3
:1005B00000BF0120A84024216143F94A891808613D
:1005C00000BF03E02946204600F06BFA70BD10B56D
:1005D0000446002204210520FFF7E4FF00220D213C
:1005E0000420FFF7DFFF00220C210420FFF7DAFFD1
:1005F00000220B210420FFF7D5FF00220A2104204E
:10060000FFF7D0FF80202040002804D001220D21D8
:100610000420FFF7C7FF40202040002804D001221B
:100620000C210420FFF7BEFF20202040002804D02A
:1006300001220B210420FFF7B5FF102020400028E5
:1006400004D001220A210420FFF7ACFF012205217A
:100650000846FFF7A7FFFFF79DFF00220521084688
:10066000FFF7A0FFFFF796FF00220D210420FFF700
:1006700099FF00220C210420FFF794FF00220B2198
:100680000420FFF78FFF00220A210420FFF78AFFD2
:10069000FFF780FF08202040002804D001220D2110
:1006A0000420FFF77FFF04202040002804D001220F
:1006B0000C210420FFF776FF02202040002804D000
:1006C00001220B210420FFF76DFFE007C00F002877
:1006D00004D001220A210420FFF764FF0122052132
:1006E0000846FFF75FFFFFF755FF00220521084688
:1006F000FFF758FFFFF74EFF00220D210420FFF700
:1007000051FF00220C210420FFF74CFF00220B2197
:100710000420FFF747FF00220A210420FFF742FFD1
:10072000FFF738FF10BD70B504462546D62C1AD009
:100730000CDC692C1FD004DC492C12D0532C22D1A4
:1007400013E0732C1BD0C72C1DD108E0DC2C0ED07D
:10075000E72C0ED0F62C10D0FC2C14D111E0002484
:1007600012E0012410E002240EE003240CE0042433
:100770000AE0002408E0012406E0022404E0032447
:1007800002E0042400E000BF00BF01220421052094
:10079000FFF708FF00220D210420FFF703FF0022CE
:1007A0000C210420FFF7FEFE00220B210420FFF79E
:1007B000F9FE00220A210420FFF7F4FE80202040E9
:1007C000002804D001220D210420FFF7EBFE402079
:1007D0002040002804D001220C210420FFF7E2FE73
:1007E00020202040002804D001220B210420FFF704
:1007F000D9FE10202040002804D001220A21042024
:10080000FFF7D0FE012205210846FFF7CBFEFFF7D8
:10081000C1FE002205210846FFF7C4FEFFF7BAFE1D
:1008200000220D210420FFF7BDFE00220C21042030
:10083000FFF7B8FE00220B210420FFF7B3FE0022D1
:100840000A210420FFF7AEFEFFF7A4FE0820204097
:10085000002804D001220D210420FFF7A3FE04206C
:100860002040002804D001220C210420FFF79AFE2A
:1008700002202040002804D001220B210420FFF791
:1008800091FEE007C00F002804D001220A210420B5
:10089000FFF788FE012205210846FFF783FEFFF7D8
:1008A00079FE002205210846FFF77CFEFFF772FE65
:1008B00000220D210420FFF775FE00220C210420E8
:1008C000FFF770FE00220B210420FFF76BFE0022D1
:1008D0000A210420FFF766FEFFF75CFE70BD10B52D
:1008E000044605E0FFF756FE2078641CFFF71BFF67
:1008F00020780028F6D12B48FFF746FE10BD70B5D2
:1009000004460D46012C05D129467F31C8B2FFF7B8
:100910005EFE06E0022C04D12946BF31C8B2FFF7C3
:1009200056FE70BD10B50120FFF751FEFFF732FEF5
:1009300010BD10B51B48FFF727FE1A48FFF724FE2D
:100940001848FFF721FE0220FFF741FE1548FFF788
:100950001BFE2820FFF73BFE1248FFF715FE06207E
:10096000FFF735FE0F48FFF70FFE0F20FFF72FFEB2
:100970000C48FFF709FE0C20FFF729FE0948FFF796
:1009800003FE0120FFF723FE0648FFF7FDFDFFF7FA
:1009900001FEFFF7C7FF0020034908702BE00000AD
:1009A00000600040FFFF00000C000020414800787C
:1009B000FFF70DFE0020404908700EE03F4909781E
:1009C000C9003F4A89183C4A1278885CFFF7ABFEA1
:1009D00039480078401C38490870374800780728A3
:1009E000ECDD34480078083032490870334800782C
:1009F000401C32490870314800780728D6DDFFF7DF
:100A000091FF3048FFF7C0FD10BD10B501212E4801
:100A100000F071FC002304220A21104601F081F845
:100A20000A21042000F03DF8002304220B21104687
:100A300001F077F80B21042000F033F800230422A2
:100A40000C21104601F06DF80C21042000F029F86B
:100A5000002304220D21104601F063F80D2104202B
:100A600000F01FF8002304220321052001F059F8AB
:100A70000321052000F015F800230422114605206B
:100A800001F04FF80421052000F00BF800230422A8
:100A90000521084601F045F80521084600F001F857
:100AA00010BD10B501228A4024234343074C1B1973
:100AB0005A6110BD0D0000200E0000200C00002027
:100AC0000F000020FFFF00000072040000600040E3
:100AD000F7B50446029B002B02D010259A4A01E08C
:100AE00000259A4A666B164000200B0004F053FA6A
:100AF000070513223045453F4500954B5B6B7F272B
:100B00003F023B401B0A1B021843914B5B6B5B0689
:100B10005B0E184333E08E4B5B6B7F273F063B40F9
:100B20001B0E1B0218438A4B5B6B3F123B401B0C96
:100B3000184324E0864B9B6B7F273F023B401B0AF8
:100B40001B021843824B9B6B5B065B0E184316E03F
:100B50007F4B9B6B7F273F063B401B0E1B021843BE
:100B60007B4B9B6B3F123B401B0C184307E0784BC1
:100B7000DB6B5B065B0E184301E0002000BF00BF8B
:100B80000346AB4033436363FEBD70B504460E4677
:100B90007048844201D9044604E07D20000284426A
:100BA00000D20446002E03D16B4800F0D8FB064665
:100BB0003119481E214603F029FD0546002D00D0BD
:100BC0006D1EE8B270BDF8B505460C462779002FBA
:100BD00005D100215F48FFF7D8FF074608E0002154
:100BE0005C48FFF7D2FF00217D200002FFF7CDFF18
:100BF0000A20686020780006E17809047F22120448
:100C0000114008433902121211400843617809016A
:100C10000843A178084306466079002801D00820DF
:100C200006432E60F8BD70B506460C46082070607D
:100C3000A17801223046FFF74BFF2078000761784A
:100C40000905084361680843E1780901084305463E
:100C5000607A002802D0012000060543A07A00280F
:100C600001D004200543207A002801D0022005434A
:100C7000E07A002801D001200543A0780004054354
:100C800060680543356170BD70B506460C460220AC
:100C90007060A17800223046FFF71AFF2078000725
:100CA000617809050843217909020843E1780901BF
:100CB00008430546A079002802D00120000605431C
:100CC000E079002801D0042005436079002801D094
:100CD00002200543207A002801D001200543A07896
:100CE00000040543F56070BD10B504460A2060603D
:100CF0000020E06020611F2000042060002060616F
:100D0000164820621648E063002211462046FFF78D
:100D1000DFFE012200212046FFF7DAFE10BD10B5EC
:100D20000446002C06D10C4800F019FB0446002CA8
:100D300000D101240B482418411C204603F066FC16
:100D40000446601EC0B210BDFFFF80808080FFFFA0
:100D50008081E00F405DC600408104000303000075
:100D6000470700003F420F0030B5036801258D4062
:100D70001C46AC43D507ED0F8D402C43046030BDBD
:100D800010B5F848406907210902084001225202C3
:100D9000811A904218D006DC00281FD0FF38013895
:100DA00000281FD118E0FF390139002904D00120A3
:100DB0008002081A16D113E000F02AFD132801DB87
:100DC000E94C00E0E94C0FE000F022FD132801DBC4
:100DD000E74C00E0E74C07E0E74C05E0E74C03E0B8
:100DE000E74C01E0002400BF00BF204610BD10B555
:100DF000014601200A07120F012A06D0022A1CD040
:100E0000032A37D0062A54D151E0D64BDB6A0F248F
:100E1000A40223400124E4021B1B08D01B1B04D0A6
:100E200064001B1B05D1022005E0032003E0042021
:100E300001E0052000BF00BF3DE0CA4B9B6A9B0755
:100E40009B0F012B04D0022B04D0032B06D103E00F
:100E500003200DE002200BE0062009E0C14B9B6A55
:100E6000012424042340002B01D0092000E000BF0E
:100E700000BF20E0BB4B9B6A0C242340042B04D012
:100E8000082B04D00C2B06D103E003200DE0022038
:100E90000BE0062009E0B34B9B6A012424052340A4
:100EA000002B01D0092000E000BF00BF03E00720B5
:100EB00001E0002000BF00BF10BD70B5B148FFF7D2
:100EC00096FF0546072D05D0082D07D1FFF7E8F856
:100ED000044605E0FFF754FF044601E0002400BF8C
:100EE00000BF204670BD10B5A74BDB6B002B01D0B7
:100EF000012300E000231A46A44BA34CE3632346DE
:100F00005B685907490FA24B984204D85B1098427E
:100F100001D9012100E000219B4B5B68DB08DB006D
:100F20000B43994C6360002A01D00023E36310BD9A
:100F300010B5FFF705F90446FFF7D5FF10BD70B5F2
:100F40000446002693482018002804D092494018EF
:100F5000002802D100E000BF00E000BF00BF204633
:100F6000FFF745FF05468B482018002804D08A4922
:100F7000401800280BD104E07A48806A8507AD0F3D
:100F800006E07848806A0C210840850800E000BF30
:100F900000BF002D12D0012D04D0022D06D0032D4C
:100FA00024D107E0FFF7E0F8064621E0FFF7E2F87A
:100FB00006461DE0FFF7B5F8460819E0002675481B
:100FC0004042844202D0754884420ED16548806A0E
:100FD000704949428C4201D1102100E01421C840DF
:100FE000002802D0FFF7C3F8064601E0002600BF44
:100FF00000BF304670BD5B484069072109020840C8
:10100000000A704700B501460B0003F0C4FF081743
:101010001009051F1F1F1B1F614A5269D0B216E03D
:101020005F4A5269FF231B021A40100A0FE05C4A14
:101030005269FF231B041A40100C08E0584A5269F9
:10104000100E04E0564A9269D0B200E000BD00BF25
:10105000444A5269D20AD2020B021A430243414B5C
:101060005A6100BFF2E770B505460C46230003F055
:1010700092FF0504080C10141800012039498861FA
:1010800011E00320374988610DE00020354988616F
:1010900009E002203349886105E004203149886174
:1010A00001E0002070BD00BF2E48C56108202D4919
:1010B000486200BF0E212B482C3000F091FB002825
:1010C000F8D12848C069EDE710B50446254B9B6967
:1010D000980980010B0003F05EFF0504070A0D105C
:1010E0001300102318430CE02023184309E00823C1
:1010F000184306E01823184303E02823184300E0B0
:1011000000BF00BF174BDC61130003F044FF050470
:10111000070A0C0F1200012318430BE003231843A6
:1011200008E000BF06E00223184303E0042318434D
:1011300000E000BF00BF0B4B986110BD10B5062149
:101140000848183000F04CFB002807D100BF0E21E2
:1011500004482C3000F044FB0028F8D10148C06955
:1011600010BD000000800C40804F120040420F0074
:1011700040B56400C0CF6A00C0D8A700809FD500EA
:10118000406F400106000C0000000C40711B000085
:101190000048E801FEFFE5FFFFFFFDFF03001C0024
:1011A000C081E00F70B504462006060F042E06D05D
:1011B000052E0DD0062E14D0072E36D123E0FC4884
:1011C000806805072D0F284600F01EFB05462EE01F
:1011D000F748406805072D0F284600F015FB054627
:1011E00025E0F4482018002809D1F1484030806AF1
:1011F00005072D0F284600F007FB054601E00125F5
:1012000000BF00BF13E0EC482018002809D1E848CF
:101210004030006B8507AD0F284600F0F5FA054613
:1012200001E0012500BF00BF01E0012500BF00BFB4
:10123000284670BDF8B505460C462806060F042E54
:1012400006D0052E10D0062E22D0072E50D137E022
:10125000204600F0D0FA0446D54880680009000115
:101260002043D349886044E0FFF762FE204600F047
:10127000C2FA0446CE484068000900012043CC4928
:101280004860FEF74EFF07463846FFF72CFE30E079
:10129000C8482818002810D1042000F0BDFA2046C4
:1012A00000F0A9FA0446C2484030806A00090001F3
:1012B0002043BF494031886200E000BF00BF18E012
:1012C000BD482818002810D1402000F0A5FA20467B
:1012D00000F091FA0446B6484030006B8008800068
:1012E0002043B3494031086300E000BF00BF00E085
:1012F00000BF00BFF8BDF3B581B005460027280543
:10130000000F030003F047FE0B1B0A0D071B1B1009
:10131000141B1B181B00A64C403411E0A44C0834CD
:101320000EE0A34C44340BE0A14C5834012707E0F5
:101330009F4C6034102703E09D4C783400E0FEBDE4
:1013400000BFE803C60E002F02D0384600F064FA52
:1013500031462046029AFFF707FD00BFEFE770B560
:1013600005461F2040042840C103C90B00294BD16A
:101370004014030003F00FFE0F09180D48484840C1
:101380004421484833481C2E4800FEF789FE044695
:101390003CE0FEF785FE0446854880680107090F9A
:1013A0002046C840044631E0FEF7BBFE04462DE06F
:1013B0008248FFF7C4FD044628E08048FFF7BFFDE0
:1013C00004467B484030806A0107090F2046C84028
:1013D00004461BE07A48FFF7B2FD044616E0784861
:1013E000FFF7ADFD044672484030006B8107890F5E
:1013F0002046C840044609E0FFF75FFD044605E0CB
:10140000FFF7BEFC044601E0002400BF00BF2046F9
:1014100070BDF7B507463B0003F0BDFD051410088D
:10142000040C190001250226012411E004250826D8
:1014300003240DE010252026052409E04025802600
:10144000072405E0FF2501356E00092400E0FEBDFC
:1014500000BF019800280DD0554805620298002869
:101460000AD000BF214652482C3000F0B9F90028BC
:10147000F8D001E04E48066200F0DFFA00BFE6E770
:10148000F0B585B007460D4603200390029000207A
:1014900000903E07360F012E04D0022E35D0032EC9
:1014A00075D133E0A81E030003F075FD08050A0F8F
:1014B000131A1A1A181A042003900020029010E040
:1014C00003200390012002900BE002200390029081
:1014D00007E0012003900320029002E005B0F0BD78
:1014E000FCE700BF012211460298FFF792FFFFF7C9
:1014F0001FFD2F490398486200F09FFAFEF711FE86
:1015000001900198FFF7EFFC42E000BF2B0003F0D1
:1015100042FD0A2206080F22221622221E22002441
:101520001AE0012211460020FFF773FF022413E0A6
:10153000012211461046FFF76CFF01240CE0012246
:1015400002211B484030FFF70FFC032404E0002475
:101550000120009000E0C1E700BF022E0AD114482C
:10156000806A18490840204300990904084310493B
:1015700088620AE00E48806A13490840A1000843C7
:101580000099090508430A49886201E0FFE700BFA6
:1015900000BF00BFA2E7002818D000BF04494031B7
:1015A00009690029FAD10121014A4032516110E054
:1015B00000800C40A0F9EFFF90F8E9FF02001A004C
:1015C00003001C00FCFFFEFFF3FFEFFF00219A4A1F
:1015D0005161704798484038C068072109020840A7
:1015E000000A7047F8B505462B0003F0D4FC05044B
:1015F000080F161A1E009148C069C4B216E08F4841
:10160000C069FF2109020840040A0FE08B48C06945
:10161000FF2109040840040C08E08848C069040E52
:1016200004E08648006AC4B200E0F8BD00BF0120B3
:10163000FFF7DDFB0646052E01D1FFF779FC7E485A
:101640004038C068C00AC0022902084320437A49D2
:101650004039C860052E05D1FEF763FD07463846C0
:10166000FFF741FC00BFE0E773484038C0681F2126
:1016700009030840000B7047C006C00E6E49403990
:10168000C9681F2212039143020311436A4A403A78
:10169000D160704710B504460120FFF7A8FB012276
:1016A00000210220FFF7B5FE607840022178890012
:1016B0000843E1780843A178002901D0802100E0A7
:1016C0000021084302465E495B48403800F08EF82E
:1016D00010BD00207047704770B504460120FFF729
:1016E00086FB002211461046FFF793FE2078022168
:1016F000084045086078800469030843A178C9025E
:10170000084302464F494C48403800F06FF870BD1E
:101710000146012904D0032908D0042910D10AE088
:10172000454A403A12695006400E0BE0424A403AA0
:10173000D268D0B206E0404A403A5269D0B201E0E5
:10174000002000BF00BF7047012804D003280ED03E
:10175000042822D116E04906490E374A403A126958
:10176000D209D2010A43344B403B1A6116E0C9B298
:10177000314A403AD268120A12020A432E4B403BC9
:10178000DA600BE0C9B22C4A403A5269120A1202DE
:101790000A43294B403B5A6100E000BF00BF70473D
:1017A0000246002A04D12448816B0223194001E03B
:1017B000002100BF00BF002901D001207047002098
:1017C000FCE770B504460D460026002D00D001262A
:1017D0006000411C324618483830FFF7C5FA70BD2A
:1017E00002461068C840C007C00F704703688B43AB
:1017F00013430360704770B50446204603F0B4FB02
:101800001F210D1A284670BD0146012088407047EF
:101810000A48C06B000E704707494969C907C90FDC
:10182000002900D0704700BF034909690140002921
:10183000FAD100BFF6E7000040800C40C081E00F05
:101840008F06000000380C00864A5268D107C90F85
:1018500000BF854A834B5A6000BF0020834A12783C
:10186000D207D20F1043814A126810231A40002A6F
:1018700001D0102200E0002210437C4A126840236D
:101880001A40002A01D0402200E000221043774A8B
:10189000126804231A40002A01D0042200E000222A
:1018A0001043724A1268FF2301331A40002A01D004
:1018B0001A4600E0002210436A4A803A10626B4ADE
:1018C00012680F239B021A400123DB02D21A20D098
:1018D000D21A03D05B00D21A28D10CE000BF614AB3
:1018E000803AD26A80231A40002AF8D003225D4B46
:1018F000803B5A621BE000BF5A4A803AD26A0123F9
:101900005B021A40002AF7D00422564B803B5A62F1
:101910000DE000BF534A803AD26A08231A40002AD9
:10192000F8D002224F4B803B5A6200E000BF00BF5C
:101930004E4A1278D207D20F002A03D10222494B15
:10194000803B1A62002905D000BF0022454B5A6037
:1019500000BF00BF704710B5044642488038C06AD7
:10196000424908604248006904210843404908612F
:1019700030BF002C02D0FFF767FF0BE03B48006848
:10198000012189020840002804D100BFFEF7C9FBED
:1019900000BF00BF10BD70B5044632488038C06A31
:1019A000324908602F484068C507ED0F00BF2E4838
:1019B0002C49486000BF0520C0012A4980390862CF
:1019C000002D05D000BF00202649486000BF00BFA1
:1019D00027480069042108432549086130BF002CCD
:1019E00002D0FFF731FF0BE0204800680121890297
:1019F0000840002804D100BFFEF793FB00BF00BFE2
:101A000070BD10B51B4B1B680C24A343194608314D
:101A1000184B1B68A3431A1900BF174B154CA36042
:101A200000BF002003E0134B19601A60401C04281B
:101A3000F9DB104B196010BD70470A488038C06A46
:101A40000A49086070470178002904D009490968EB
:101A50000122114303E00749096849084900054A82
:101A60001160704780800C400E580000500000202C
:101A700000ED00E000600C40E8AD000030B5036808
:101A800001258D401C46AC43D507ED0F8D402C43FE
:101A9000046030BD704710B524224243714BD21808
:101AA0001268920892000A43242343436D4C1B1989
:101AB0001A6010BDF8B5054614461F46082C0BD217
:101AC000A0002B4683401A46A300072098400146F9
:101AD000654800F0AFF80DE02646083EB0002B4602
:101AE00083401A46B3000720984001465E48001D17
:101AF00000F0A0F83A4621465B480830FFF7BEFFE9
:101B0000214659480C30069AFFF7B8FF0120A04043
:101B10005549C861214654481030079AFFF7AEFF77
:101B2000F8BDF8B505460C4616461F46002E0AD0ED
:101B3000002F04D02146284600F08AF803E0214611
:101B4000284600F07CF8082C12D22420684345492E
:101B500040184068A2000F2191408843A2003146FE
:101B600091400843242169433E4A8918486015E0A2
:101B7000242068433B4940188068214608398A0080
:101B80000F2191408843214608398A00314691400F
:101B9000084324216943334A89188860002E0AD1FA
:101BA000002F04D02146284600F052F803E02146D9
:101BB000284600F044F8F8BD0246082909D224203E
:101BC0005043284BC01840688B00D8400007000FD6
:101BD000704724205043234BC01880680B46083BB5
:101BE0009B00D8400007000FF2E710B51E4A926B29
:101BF00082431D4B9A631A46926B03460B401A436D
:101C0000194B9A631A46526B02435A630122002A07
:101C100005D0DB6A01242343134CE36205E0124B39
:101C2000DB6A5B085B00104CE36200BF01220E4BD5
:101C30001A6310BD03688B4313430360704710B5EC
:101C400001228A4024234343064C1B195A6110BDCC
:101C500010B501228A4024234343024C1B191A6108
:101C600010BD00000060004000610040FEB5064667
:101C70000C4684480440E01DF9300190304601993B
:101C800002F0C4FC00903046019902F0BFFC0F4600
:101C9000009805023802019902F0B8FC451928465F
:101CA000FEBD70B504467848844201D1774D01E00D
:101CB000002070BD2846FFF752FB0646E16830461B
:101CC000FFF7D4FFF5E7F7B505460E46002E09D11C
:101CD0006D48854201D16D4F00E0FEBD3846FFF7EB
:101CE0003EFB06467001029902F090FC0446203C3F
:101CF000E400644804400421284600F0B6F8EC6093
:101D000000BFEAE770B506460D46EC4305200440E7
:101D100064002046284304460221304600F0A5F81E
:101D2000746070BD002906D000BF426C002AFCD14F
:101D30000122026401E000220264704770B505468A
:101D40000C460221284600F090F80A206860012124
:101D50002846FFF7E7FF28681C218843217B0843BA
:101D6000617B0843A17B084328602846A26861681C
:101D7000FFF7A9FF2078686000212846FFF7D2FF0F
:101D800070BD00B5034601211846FFF7CBFFEA20DE
:101D9000586000201860D8601861586198633C480A
:101DA00058630020D863586500211846FFF7BAFF32
:101DB00000BD014600BF8868202210400028FAD0EC
:101DC000C869C0B27047014600BF88682022104031
:101DD0000028FAD0886980B2704770B504460D4675
:101DE00000BFA068102108400028FAD040212046FA
:101DF00000F03BF8A56270BD70B504460D4600BF0B
:101E0000A068102108400028FAD02021204600F0C8
:101E10002CF8656270BD70B504460D460121204660
:101E200000F023F8002D05D0206801214903084364
:101E3000206004E02068012149038843206070BDD0
:101E400070B504460D460121204600F00EF8002D25
:101E500005D02068012109030843206004E02068C0
:101E6000012109038843206070BD026CD207D20FA4
:101E7000002A00D0704700BF426C0A40002AFBD104
:101E800000BFF7E7F87F0000004008407007160029
:101E9000F90700000146002902D0012906D102E01D
:101EA0002C4A906804E02B4AD06801E0002000BF73
:101EB00000BF70470246002A02D0012A06D102E084
:101EC0002448083003E023480C3000E0704700BF8E
:101ED000016000BFFAE710B500211E4B1A6801240B
:101EE0008C401346A343C407E40F8C402343194C92
:101EF000236000BF10BD002803D00121154A1162E4
:101F000002E00021134A1162704701460A78002A54
:101F100001D0012000E000204A78002A01D00222EE
:101F200010438A78002A01D004221043094A106025
:101F3000704700200749086208608860C860C8616F
:101F40008861704700B50020FFF7C5FF0120FFF74B
:101F5000C2FF00BD00000840FFB581B004460F4637
:101F6000002F03D1F848FFF7FAF907460498002834
:101F700006D0202806D0402806D0602808D105E0E9
:101F8000102507E0082505E0062503E0042501E00B
:101F900005B0F0BD00BFB9000398684340080E18B3
:101FA000039868430146304602F030FB0646361F70
:101FB000B601E6480640206860218843206020681A
:101FC000049908432060666100BFE1E7FFB591B066
:101FD000DE491298084012901398002804D001207E
:101FE0000890802400251CE01498002804D02028A4
:101FF00007D040280FD109E00120089010240025C7
:102000000EE0012008902024002509E0032008901C
:102010008024002504E0012008904024002500BF12
:1020200000BF1298C61DF93608994E430027324664
:102030003B460021119802F013FB059104903246B3
:102040003B460021119802F00BFB0793069205997D
:1020500004980F9510940D910E90204629460D9BE3
:102060000E9A02F02DFB0390079906980B950C949D
:1020700009910A9020462946099B0A9A02F020FB02
:1020800032463B460191009002F0EAFA039940186B
:102090000390039815B0F0BDF8B504462068C0075A
:1020A000C00F002801D0012500E00025A648FFF759
:1020B00056F90746266860210E40616933462A4674
:1020C0003846FFF783FFF8BDF8B505460E461746BC
:1020D000002E03D19C48FFF742F906467400781E93
:1020E00004193946204602F091FA0446241FA4013F
:1020F000C034240A24029548044021466A69824378
:102100000A436A6100BFF8BDCA4305231A40530061
:10211000C360C16070478E49C160002101608D4974
:102120004160002181604161C1648B49816400216B
:1021300041658A49884201D10021016500218165FC
:102140008649884201D10021C165704770B50546B6
:102150000C462846FFF7DFFFA07C002804D0286843
:102160000121890708432860E07C002803D0207DF6
:1021700010210843A865607B218A0843E189084350
:102180006860237B2846A2686168FFF7E5FE207837
:10219000E86070BD70B505460C462846FFF7BBFFEA
:1021A000208A01210843A17B002902D00121890254
:1021B00000E0002108432968084328602868217D41
:1021C000002902D00121490700E0002108432860CE
:1021D000A07C002803D0E07C10210843A865207B68
:1021E00001210903401868602846A2686168FFF76A
:1021F0006BFF607B002801D01020E8602078E86049
:1022000070BD70B504460D4629462046FFF79EFF77
:1022100020680121890308432060287E002803D01C
:102220002068491008432060A87E297F0843697E02
:10223000C9000843E97EC9010843216D08432065B0
:10224000206D01210843206570BD70B505460C4620
:1022500026780020207021462846FFF79BFF208B20
:10226000217F0843A17E002901D0102100E0002138
:102270000843E17E002901D0082100E00021084345
:10228000617F002901D0022100E0002108430121E3
:102290000843E865002E03D031462846FFF734FF97
:1022A00070BD10B5024693687324A34318460B789B
:1022B000002B01D0402318438B78002B01D0202322
:1022C00018434B78002B01D010231843CB781843C8
:1022D000906010BD014600BF0869802210400028B0
:1022E000FAD0C869C0B27047014600BF0869FF2232
:1022F000013210400028F9D0486A80B27047014688
:1023000000BF0869FF22013210400028F9D0086A96
:102310007047014600BF0869802210400028FAD0AB
:10232000886980B27047024600BF10694023184098
:102330000028FAD0516300BF1069202318400028FC
:10234000FAD0D069C0B2704740810400C0FF1F00BE
:10235000AA0E000005100000F91F000000C4004094
:1023600000BF026940231A40002AFAD04163704737
:1023700000BF026940231A40002AFAD0C1637047A7
:1023800000BF026940231A40002AFAD081637047D7
:1023900000BF026940231A40002AFAD00163704747
:1023A00030B5036801258D401C46AC43D507ED0FC1
:1023B0008D402C43046030BD70B50446FA48FEF7EA
:1023C000CEFF06462068032109020840000AF749AB
:1023D0000D5C2069401C6843011D304602F016F96F
:1023E00070BDFEB504460F4616461D46002E00D1B0
:1023F000FEBD2068032109028843206008462902A7
:10240000226882430A43226000BF002F03D1E648BE
:10241000FEF7A5FF07460020C04301902068022177
:102420000840002810D0002D04D0012D05D0022D29
:1024300009D105E0DE48019005E0DE48019002E0A8
:10244000DD48019000BF10E0002D04D0012D05D023
:10245000022D09D105E0D948019005E0D848019046
:1024600002E0D848019000BF00BFD048425D029210
:10247000029A72431146B200B81A02F0C7F8401E21
:102480000090206802210840002804D0009800280D
:1024900001D1012000900098206100BFA8E770B52D
:1024A00005460C46224600212846FFF779FF70BDFD
:1024B00070B505460C4600206863C3482863607801
:1024C000002801D1012000E0002002460121284619
:1024D000FFF766FF237B2846A2686168FFF781FF4C
:1024E000227800212846FFF75BFF70BD00210160C4
:1024F0000161416181614163B34901637047FEB588
:102500000246B248824201D1B14902E00320C043F1
:10251000FEBD8C6800BF956A032040022840002859
:1025200013D0012040022840002803D00220C043DD
:10253000487007E0012080022840002802D00120D6
:10254000C04348700920087063E10878030002F076
:1025500022FD090626597999B9E8F8F7F60060884E
:1025600010231840002806D02088000A06231840AF
:10257000F03002900CE02088FE2318400290608822
:1025800002231840002803D0012302981843029028
:1025900001200870029850620120506039E18020CB
:1025A0002840002809D0802010630020C0434870D4
:1025B000082008700220506023E0402028400028B6
:1025C0001FD040201063608810231840002804D0DA
:1025D000022008702078506213E0608802231840BF
:1025E00000280BD0072008700879C300201D181898
:1025F0008088012805D10820506002E0052008707D
:1026000089E706E180202840002809D08020106357
:102610000020C0434870082008700220506010E07D
:102620004020284000280CD04020106360880223FE
:102630001840002802D00320087001E0052008702F
:1026400069E7E6E0608810231840002806D020885B
:10265000001206231840F030029003E02088FE2389
:1026600018400290608804231840002803D00123FA
:1026700002981843029004200870012050600298CC
:102680005062C6E080202840002809D080201063D6
:102690000020C0434870082008700220506010E0FD
:1026A0004020284000280CD040201063608804237C
:1026B0001840002802D00720087002E005200870AA
:1026C00029E7A6E04B880879C600201D30188088CD
:1026D00083421ADB002048800879401C087160881A
:1026E00004231840002802D00320087013E7A078C4
:1026F000C007C00F002802D10879012804DD082096
:1027000008700220506084E005E74B88581C488020
:102710000879C600201D8059C05C506206200870F0
:1027200077E08020284000280CD080201063002013
:10273000C043487008200870022050600BE062E03F
:1027400056E009E040202840002804D040201063D3
:1027500005200870DFE65CE020202840002846D0F5
:102760000879C300201D181880880090D069C0B275
:1027700001904B880098834208D24B885E1C0198D8
:102780004E800E79F600271DBE59F0544B880098F4
:1027900083421FD30098012801D1082050600820EF
:1027A00008700220506021E040810400865800003B
:1027B00040164000C0D8A7008050740180841E00DD
:1027C00040548900002D3101CFFF010000A00040DE
:1027D00014010020042050600098012806D94B887D
:1027E0000098401E834201D10820506000BF10E0D5
:1027F000FF2001302840002804D0FF200130106362
:102800000920087005E00420C043487009200870C2
:1028100000BF0878092807D10020506348780128B4
:1028200004D10020487001E0012071E60120085623
:102830006EE670B504460D461E48844201D11E4E18
:1028400002E00320C04370BDA068C007C00F00288D
:1028500001D020206060688802210840002802D052
:102860002889002807D0688804210840002805D05E
:10287000288A002802D10320C043E4E700203070FA
:1028800001207070002070803071B560C0206060E1
:10289000A06A20210840002800D0E0690748206392
:1028A000606B3F214901084360632046FFF727FE24
:1028B000C9E7000000A0004014010020CFFF010084
:1028C0007047F8B505460E46174600240221084613
:1028D00000F0DEF9FFF7F4FF202028430146F54819
:1028E000FFF721FD009000BF06E0315DF148FFF7E2
:1028F0001AFD0090601CC4B2BC42F6DBFFF7E0FF9B
:102900000221084600F0CDF90098F8BDFEB5054655
:102910000C46164600200190009000270221084630
:1029200000F0B6F92946E348FFF7FDFC01900820C6
:1029300000F09FF900BF13E0FF21DE48FFF7F3FC32
:1029400000BFDD4800780028FBD00020DA4908707D
:1029500000BFD848C069C0B22070641C781CC7B2E0
:10296000B742E9DB082000F08BF90221084600F0AD
:1029700098F9FEBD70B504460026002502210846E0
:1029800000F086F92146CB48FFF7CDFC064608202B
:1029900000F06FF9FF21C748FFF7C5FC00BFC6482C
:1029A00000780028FBD00020C349087000BFC14850
:1029B000C069C0B20546082000F062F9022108464D
:1029C00000F06FF9284670BD70471CB50024BBA10C
:1029D00003C9019100900321022000F059F9FFF78B
:1029E0006FFF0221084600F053F9FFF769FF20212D
:1029F000B048FFF798FC3821AE48FFF794FCFFF78A
:102A00005FFF0221084600F04CF9FFF759FF022151
:102A1000084600F03DF9FFF753FF2421A548FFF7D2
:102A200082FC0021A348FFF77EFCFFF749FF02214B
:102A3000084600F036F9FFF743FF0221084600F090
:102A400027F9FFF73DFF23219A48FFF76CFC03218C
:102A50009848FFF768FCFFF733FF0221084600F0B3
:102A600020F9FFF72DFF0221084600F011F9FFF7CA
:102A700027FF26218F48FFF756FC26218D48FFF7B8
:102A800052FCFFF71DFF0221084600F00AF9FFF78C
:102A900017FF0221084600F0FBF8FFF711FF252180
:102AA0008448FFF740FC02218248FFF73CFCFFF717
:102AB00007FF0221084600F0F4F8FFF701FF0221AA
:102AC000084600F0E5F8FFF7FBFE30217948FFF7F4
:102AD0002AFCE7217748FFF726FCE7217548FFF736
:102AE00022FCE7217348FFF71EFCE7217148FFF73E
:102AF0001AFCE7216F48FFF716FCFFF7E1FE022101
:102B0000084600F0CEF8FFF7DBFE0221084600F091
:102B1000BFF8FFF7D5FE21216648FFF704FC00212E
:102B20006448FFF700FCFFF7CBFE0221084600F0E7
:102B3000B8F80321022000F0B4F81CBDF8B5044633
:102B40000F46002600250321022000F0A1F80221F3
:102B5000084600F09DF8FFF7B3FE27215548FFF720
:102B6000E2FB7E215348FFF7DEFBFFF7A9FE0221BF
:102B7000084600F096F8FFF7A3FE0221084600F091
:102B800087F8FFF79DFE20214A48FFF7CCFB3A214A
:102B90004848FFF7C8FBFFF793FE0221084600F004
:102BA00080F8FFF78DFE0221084600F071F8FFF76C
:102BB00087FEE1213F48FFF7B6FBFFF781FE0221C8
:102BC000084600F06EF8FFF77BFE0221084600F091
:102BD0005FF8FFF775FEA0213648FFF7A4FB00BFA2
:102BE00006E021783348FFF79EFB641C681CC5B2E1
:102BF0001E2DF6DBFFF764FEFFF762FEFFF760FEB7
:102C0000FFF75EFEFFF75CFE0221084600F049F880
:102C1000FFF756FEFFF754FEFFF752FEFFF750FE98
:102C2000FFF74EFEFFF74CFEFFF74AFEFFF748FEA8
:102C3000FFF746FEFFF744FE0321022000F031F8C3
:102C4000FFF73EFEFFF73CFEFFF73AFEFFF738FEC8
:102C5000FFF736FEFFF734FEF8BD002106E000BFA7
:102C6000184A1278002AFBD04A1C91B28142F6DB46
:102C70007047C206D20E01219140134A116070477D
:102C8000C206D20E012191400F4A80321160704776
:102C900010B501228A40242343430C4C1B195A616E
:102CA00010BD10B501228A4024234343074C1B1951
:102CB0001A6110BD00C4004010010020E7E7E7E7FB
:102CC000E7000000D100002000E100E000600040CB
:102CD00030B5036801258D401C46AC43D507ED0F88
:102CE0008D402C43046030BDFFB582B004461546CC
:102CF000F74EB6682701F6190196002D01D001980C
:102D000003E0F34EF6682701F019019EF66800967D
:102D1000009E002E01D0009E35720C9E002E0ED01B
:102D200086680327BF063E40B10E032902D10C9EE0
:102D3000066004E00D9E8E400C9FF61906600B9E07
:102D4000002E0BD08668B10F032902D10B9E46607E
:102D500004E00D9E8E400B9FF61946600122A240B2
:102D6000059E002E02D0DA4EB26101E0D84EF2612B
:102D7000002D02D0D64E726301E0D54E32638668D4
:102D8000D44F3E4033460D9E36013343039E3343BA
:102D9000836006B0F0BDF0B585B0CF480668C06866
:102DA0000640CB48806B04900498304007460020D2
:102DB000029034E0002529E0F807C00F002823D056
:102DC000C348806801900120A8400090C249009843
:102DD0008860290101980818C468002C13D0207A53
:102DE0000390207A012148402072206800280AD0F0
:102DF00062680398002801D0012000E0002001460D
:102E000028462368984700BF7F086D1C002FD3D148
:102E10003146049881430F460298401C0290029864
:102E20000228C7DB05B0F0BDF0B585B004460D46FD
:102E300016461F460A9800232A460221019700964B
:102E400002902046FFF750FF0120A0400390A049C8
:102E5000039888620398486105B0F0BDFEB504464A
:102E60000D4616461F460899099833462A4600978C
:102E70000191029001212046FFF736FF0120A0407A
:102E800093498862FEBDFEB504460D4616461F46B0
:102E90000A9A09990B982B46019200910290002200
:102EA00003212046FFF720FF08982B46012203212B
:102EB0000197009602902046FFF716FF0120A040E0
:102EC00083498862FEBDFFB581B0814EB6680701B7
:102ED000F1191E01B618361F0E607D4EF668070107
:102EE000F6190C364E6096687407640F6408640027
:102EF0005E1E3601B618B668F608F6005F1E3F0182
:102F0000BF18BE60042C0AD15E1E3601B618B66822
:102F100002273E435F1E3F01BF18BE6009E05E1EF0
:102F20003601B618B66801273E435F1E3F01BF1841
:102F3000BE60CE680096009E002E02D00027009E44
:102F4000377296680727BF043E4055277F063E43E9
:102F50000127FF03F6199F007F1E3F013E43029F9A
:102F6000FF073F0F3E4326438E6001258540584EA4
:102F70007563B562042C00D1756105B0F0BD70B504
:102F800004460D465248866821018919A868C86020
:102F90002878002804D00120A0404D49886303E030
:102FA0000120A0404A49C8634949112212028918E8
:102FB000A20068688850687800280AD00120A040E4
:102FC000454988600122214643480C30FFF780FEC6
:102FD00005E00022214640480C30FFF779FE70BD25
:102FE00030B50346002902D0394CA06801E0384CC6
:102FF000E0681C0100191478A40795782D072C436C
:103000005578AD062C4395782D062C431579AD04E3
:103010002C43D578AD032C43846030BD30B50B46CE
:103020001C010019547A032C02D11468046005E0D5
:103030009489557AAC40156864190460147A032C9D
:1030400002D15468446005E09489157AAC40556813
:10305000641944600024C460D47B002C01D0072193
:1030600000E00521147AA407957A2D072C43557AA0
:10307000AD062C43957A2D062C43957BAD042C434D
:10308000D57AAD032C4395892D012C430C438460E4
:1030900030BD002904D0012282400D4B9A6203E02A
:1030A000012282400A4BDA62704701460848806A72
:1030B000C840C007C00F704770B504460D46002DCC
:1030C0000CD00122214602482430FFF701FE0AE01D
:1030D00000200C4008C0FFFF00300C4001222146B8
:1030E0004D48FFF7F5FD70BD002101228A404B4B92
:1030F0001A6000BF484A203A51600F21D1615162E5
:10310000D1625163D1630121434A2032D160002151
:10311000434AD16043499160002008E000213E4AC3
:10312000203A11231B02D2188300D150401C0428DE
:10313000F4DB704710B5044601213B48FEF7DBF88D
:10314000FFF7D2FF002001218140384A116000BF03
:1031500000BF01218140314A803A116000BFD00593
:103160002F49C8602C492039606888602078400168
:10317000401C486010BDFFB581B004460C9E002E77
:1031800001D0012200E00322029E002E05D0224E33
:10319000203EB6682701F01904E01F4E203EF66875
:1031A0002701F0190A9E002E0ED086680327BF065D
:1031B0003E40B10E032902D10A9E066004E00B9E38
:1031C0008E400A9FF6190660002B09D08668B10F61
:1031D000032901D1436003E00B9E8E40F618466040
:1031E0000125A540039E002E03D00B4E203EB56165
:1031F00002E0094E203EF56186680D4F3E40009684
:103200000B9E3601009F3E430096009E164300969B
:10321000009E866005B0F0BD20200C4080E100E0FB
:1032200000300C400F0000800013020080E200E03C
:1032300008C0FFFF30B5036801258D401C46AC4334
:10324000D507ED0F8D402C43046030BD70B50446AA
:103250000D462046002101E0491C4008202903D2E8
:10326000C207D20F002AF7D00E46002D01D0012050
:1032700000E00020024631462148FFF7DBFF70BD29
:1032800010B501201E4988601E488068C407E40FFD
:10329000002C05D000BF1C481A49886000BF00BF41
:1032A0000122002117482430FFF7C4FF00221146F5
:1032B00014482430FFF7BEFF002C05D000BF0020CB
:1032C0001049886000BF00BF10BD30B50C4C62686B
:1032D0000020002110E0CC000C4D64196368CC0084
:1032E0002C591440002C06D014461C40002C02D14E
:1032F000CC002C592043491C0B29ECD330BD0000D5
:1033000000A00C4000600C40E8AD00008C580000AC
:1033100070B504460D462B4622468021F648FDF73F
:103320002AF8002070BD70B504460D460020F34910
:10333000087009E02178F248FEF74FFD641CEF4861
:103340000078401CED490870EC480078A842F1DB99
:1033500070BD10B504460020EA49088000BF0A216C
:10336000204601F069F9E74909888842F7DC10BD79
:1033700010B5B0B0E4A003C82F912E90E4A30FCBFA
:103380002AAC0FC4E6A210460BC8D26826AC0BC408
:1033900029922822E6A11CA801F0CFF9EEA31A6811
:1033A0001B1D0BCB19AC0BC418921422EEA113A851
:1033B00001F0C3F91C22F1A10CA801F0BEF9F6A19D
:1033C00003C90B910A90F6A31A681B1D0BCB07AC1F
:1033D0000BC406921822F6A1684601F0AEF900244B
:1033E000FF21F531F84801F0C1F90020F7490880C4
:1033F00007210AA8FFF797FFC820FFF7AAFFF4A14B
:10340000F14801F0BEF9002807D00020EF490880FC
:10341000FF21F531EC4801F0A9F900BFFF21F5319A
:10342000E94801F0A3F90020E849088005212EA809
:10343000FFF779FFC820FFF78CFFE5A1E24801F014
:10344000A0F9002818D00020E0490880FF21F531BC
:10345000DD4801F08BF9FDF765FA01210846FDF71B
:103460004EFADCA0FDF73BFA01210220FDF747FAF6
:10347000DCA0FDF734FA36E00120FDF7A8F8D5A06E
:10348000FDF72DFA01210220FDF739FAD8A0FDF74A
:1034900026FAC820FFF75DFF601CC0B2044603286F
:1034A00010DC0120FDF793F8CAA0FDF718FA0121FE
:1034B0000220FDF724FAD1A0FDF711FAC820FFF78A
:1034C00048FFABE70120FDF782F8C2A0FDF707FA3D
:1034D00001210220FDF713FACDA0FDF700FAC82064
:1034E000FFF737FFD6E00020CC49087007210AA873
:1034F000FFF719FFC820FFF72CFFB5A1B24801F074
:1035000040F9002807D00020B0490880FF21F5319C
:10351000AD4801F02BF90E2126A8FFF704FFC820C3
:10352000FFF717FFAAA1A84801F02BF9002817D030
:103530000020A6490880FF21F531A34801F016F9C3
:103540000120FDF744F8A3A0FDF7C9F901210220ED
:10355000FDF7D5F9B2A0FDF7C2F9C820FFF7F9FED3
:103560001C210CA8FFF7DFFEC820FFF7F2FE98A190
:10357000954801F006F9002816D0002093490880EC
:10358000FF21F531904801F0F1F8FDF7CBF991A05A
:10359000FDF7A5F901210220FDF7B1F9A4A0FDF77F
:1035A0009EF9C820FFF7D5FE25211CA8FFF7BBFE1A
:1035B000C820FFF7CEFEC820FFF7CBFEC820FFF7DC
:1035C000C8FEC820FFF7C5FEC820FFF7C2FEC8200E
:1035D000FFF7BFFE7EA17C4801F0D3F8002817D08A
:1035E00000207A490880FF21F531774801F0BEF8C4
:1035F0000120FCF7ECFF77A0FDF771F90121022013
:10360000FDF77DF98FA0FDF76AF9C820FFF7A1FE4D
:103610000E2118A8FFF787FEC820FFF79AFE6CA1BD
:10362000694801F0AEF8002807D0002067490880FB
:10363000FF21F531644801F099F8142113A8FFF730
:1036400072FEC820FFF785FE61A15F4801F099F87E
:10365000002807D000205D490880FF21F5315A4835
:1036600001F084F80F2106A8FFF75DFEC820FFF7E0
:1036700070FE57A1544801F084F8002807D00020BC
:1036800052490880FF21F5314F4801F06FF8FDF7EE
:1036900049F900BF30B010BDF8B5002000906C496A
:1036A0000968480001F0C4F904466A4901F0DDF8F0
:1036B0006949086069496848006801F013F90546DE
:1036C000674901F079F80446664901F00BF900906A
:1036D000009801F0BFF904460022634B01F040F965
:1036E000064601F0CBF9F8BD0021604A11700121B6
:1036F0005F4A516000BFC7E000A00040C300002047
:1037000000400840D400002041540D0A0000000091
:1037100041542B43574D4F44453F0D0A00000000D4
:1037200041542B43574D4F44453D310D0A00000095
:1037300041542B43574A41503D22474172736C61BB
:103740006E626179222C224F474532323639313947
:1037500035220D0A0000000041542B4349504D55BD
:10376000583D310D0A00000041542B434950534548
:10377000525645523D312C38300D0A0041542B43EE
:1037800049505354413D223139322E3136382E3290
:103790002E313530220D0A00415445300D0A00000B
:1037A00041542B43495053544F3D31300D0A0000D2
:1037B00041542B554152543D393630302C382C3140
:1037C0002C302C300D0A0000A8010020020100203E
:1037D0004F4B000057696669204D6F64756C20205F
:1037E0003A00000042756C756E64752E2E00000064
:1037F00042756C756E6D6164692E2E0054656B7236
:1038000061722044656E69796F722E2E000000008F
:103810004D6F64756C20596F6B2E2E00EE000020EA
:103820006973742E20417961726C616E64692E0037
:1038300049503A3139322E3136382E322E31353028
:10384000000000004261676C616E64692E00000038
:10385000880000200000203A8C0000200000A040DA
:103860005C8FC23DBC74133C0000244074000020F7
:103870000020004000BFFE49096904229143FC4A30
:10388000116130BF00BF00BFFA4909780029F1D0AB
:1038900000BFF949486A00BF704710B586B00121E2
:1038A000F648FDF728FDF64C1822F649684600F068
:1038B00044FFF54802900120694688732046FEF7D0
:1038C00069FC0023042219460220FEF72AF901238D
:1038D000022219461046FEF724F90023042207218C
:1038E0000120FEF71EF90123042202210846FEF7FB
:1038F00018F90023042203210220FEF712F9002305
:10390000022204211046FEF70CF90B2060651520F9
:10391000E0600221084600F02AFE0321022000F0A8
:103920001DFE0421204600F02BFE04202146C96C18
:1039300001432246D16400BF082000F008FE0820A1
:1039400001218140D14A116000BF06B010BD1FB5F2
:103950000121CF48FDF7CFFC0121CE48FDF7CBFC7C
:103960000123042211460320FEF7DBF80023012285
:1039700005210320FEF7D5F8C74CC24B18330FCBF7
:1039800003936B4607C30321C448FDF779FD032168
:10399000C348FDF775FD0121C048FDF7ACFC0121CE
:1039A000BF48FDF7A8FC0121BE48FDF7A4FC69460D
:1039B0002046FEF7C3F9032060650421204600F08D
:1039C000E1FD0A2000F0C3FD04202146896B01437C
:1039D0002246916300BF0A2000F0B2FD0521204677
:1039E000FEF790F91FBD00B585B0A649083903C997
:1039F0000491039000200090019002900121AA48B8
:103A0000FDF779FC03A99C48FDF7DDF80421684621
:103A10004170062101710121817069469648FDF7C8
:103A200033F9A24894494863012049690143924A05
:103A3000516100BF042000F08AFD042000F080FDE9
:103A400005B000BDFEB501219248FDF754FC0023EE
:103A5000042211460320FEF764F80421032000F03D
:103A60007DFD0123042202210020FEF75AF80221E5
:103A7000002000F073FD0123042208210020FEF73E
:103A800050F80821002000F069FD012304220B21D9
:103A90001846FEF746F80B21012000F05FFD0123D8
:103AA000022205210320FEF73CF80325052400200F
:103AB0000126374602900197009622462146284665
:103AC000029BFDF7F7FF00BF0221002000F046FD3A
:103AD0000821002000F042FDFEBD08B569482830ED
:103AE00000680090012211461046FDF792FC01216A
:103AF0006B48FDF700FC03216D48FDF7C1FC012177
:103B00006C48FDF797FB01216A48FDF7F4FB0021A3
:103B10006846017041700121817067490020FEF7FD
:103B2000C9F90C2000F00CFD022000F02DFD6846C4
:103B3000FEF7EBF90120FEF7CEF908BDBAB0182266
:103B40005049203934A800F0F8FD00BF5BA39A6803
:103B500019685868DB68129311920F9110905BA25C
:103B600007CA0CAB07C300BF00BF01214848FDF7DF
:103B700061FB012211460320FDF74BFC05210120CA
:103B8000FDF77EFC0420FDF72DFD01214048FDF7E7
:103B9000B2FBFFF7A2FFFFF755FFFFF724FFFCF78B
:103BA00034FFFCF7C6FE4CA0FCF799FE0021022072
:103BB000FCF7A5FE4BA0FCF792FE6420FFF7C9FBC3
:103BC000FFF7C5FEFFF7D4FBFFF767FEFEF7FDFE2C
:103BD00034A8FCF76BFC474A80214748FCF742FBBE
:103BE000002280214448FCF732FC444908704448D4
:103BF000FDF7B5FB434908600120FDF7B0FB4249E2
:103C000008602348FDF7ABFB4049086097E3FFF7E6
:103C10006BFD3F49086008460068FFF73DFD04461C
:103C20003C480168204600F0C7FD3A490860384921
:103C30003948FFF76DFB3848006800F004FF05467F
:103C4000364900F04FFE044635480168204600F032
:103C5000B3FD334908602E48006800F0E9FE0546D0
:103C60002E4900F03FFE04462E48016820465BE0E6
:103C700000ED00E07400002000200040003204004D
:103C800000C4004004590000A086010080E100E06B
:103C900040810400007204000040084003001C0042
:103CA000002302007007160000A204007C1F000021
:103CB00002001A0060061000CA0C000041542B4399
:103CC0004950434C4F53453D300D0A0041542B435E
:103CD000574A41503F0D0A0048756D756469747903
:103CE00000000000436F6E74726F6C6C657220761A
:103CF000312E3000A000002000A00040A1000020D4
:103D000050000200C4000020C8000020CC000020A9
:103D100088000020E80000209400002000007A4481
:103D2000DC000020E000002000F046FDFD490860B6
:103D3000FD480088401CFC490880FC4800880A288F
:103D40007DDBFCF762FE0220F949C9698143F84A2C
:103D5000D16100BF0020022101228A402423434375
:103D6000F44C1B199A6100BFF3490870EF490880B1
:103D7000ED48008800F067FE04462146EF480068E1
:103D800000F0B0FDED490860E748008800F05BFEF8
:103D900004462146E348006800F0A4FDE1490860BC
:103DA000E148008800F04FFE04462146E4480068E0
:103DB00000F098FDE3490860E048006800F04AFE22
:103DC000044622460B46E0A1E34801F0B9F8012180
:103DD0000846FCF794FDE048FCF781FDD1480068F7
:103DE00000F038FE044622460B46DCA1DA4801F01A
:103DF000A7F801210220FCF782FDD748FCF76FFDF0
:103E0000D048006800F026FE04460D46CB48006806
:103E100000F020FE06460F46C248006800F01AFE79
:103E200002460B4601970096039502940B910A9067
:103E3000CEA1D34801F084F81E21D14800E00DE066
:103E4000FEF77CFE022000F09FFB0020B5490860D1
:103E5000BA490860BA490860B3490880C94800787F
:103E600001287CD1C820FFF774FAC7A1C94800F027
:103E700088FC002837D0C8A11BA801F061F81BA856
:103E800000F093FC04462246CEA113A801F058F896
:103E900013A800F08AFCC4B2214613A8FFF743FA26
:103EA000C820FFF756FA1BA800F07FFCC4B22146D9
:103EB0001BA8FFF738FA00BF00BF00BF00BF00BF5C
:103EC000BFF34F8F00BF00BF00BFC348C349C860E6
:103ED00000BF00BF00BFBFF34F8F00BF00BF00BFD8
:103EE00000BF00BFFDE7BEA1AA4800F04AFC0028C1
:103EF00023D0BEA11BA801F023F81BA800F055FC9D
:103F000004462246AFA113A801F01AF813A800F046
:103F10004CFCC4B2214613A8FFF705FAC820FFF7EE
:103F200018FA1BA800F041FCC4B221461BA8FFF7F9
:103F3000FAF90821002000F01AFBB6A1954800F01C
:103F400020FC002825D0B7A11BA800F0F9FF1BA872
:103F500000F02BFC044622469AA113A800E0EBE1F6
:103F600000F0EEFF13A800F020FCC4B2214613A815
:103F7000FFF7D9F9C820FFF7ECF91BA800F015FCF2
:103F8000C4B221461BA8FFF7CEF90821002000F09B
:103F9000E5FAAEA17F4800F0F4FB002821D0AFA1E4
:103FA0001BA800F0CDFF1BA800F0FFFB0446224633
:103FB00084A113A800F0C4FF13A800F0F6FBC4B25C
:103FC000214613A8FFF7AFF9C820FFF7C2F91BA8D5
:103FD00000F0EBFBC4B221461BA8FFF7A4F9FFF7E2
:103FE0004FF9A9A16B4800F0CCFB002821D0AAA171
:103FF0001BA800F0A5FF1BA800F0D7FB0446224633
:1040000070A113A800F09CFF13A800F0CEFBC4B26F
:10401000214613A8FFF787F9C820FFF79AF91BA8D4
:1040200000F0C3FBC4B221461BA8FFF77CF9FFF7E1
:104030009FF9A4A1574800F0A4FB002871D03A488A
:10404000008800F000FD044621463C48006800F06E
:1040500049FC9F4908603448008800F0F4FC04469D
:1040600021463048006800F03DFC9A4908602E481F
:10407000008800F0E8FC044621463148006800F062
:1040800031FC95490860FFF720F99449086092488F
:10409000006800F0DFFC04460D468D48006800F023
:1040A000D9FC06460F468B48006800F0D3FC0B9104
:1040B0000A908A4800680597049607950694089028
:1040C0000A98039102908648007886490978009101
:1040D000019085480378854802788549854800F035
:1040E0002FFF844A84491BA800F02AFF1BA800F078
:1040F0005CFB0446224633A113A800F021FFFF21F8
:10410000F531244800F032FB00207C49087013A8E8
:1041100000F04BFBC4B2214613A8FFF704F9C820F6
:10412000EEE0F7E0E0000020DA000020F2000020DE
:104130000000084000600040D0000020DC000020AB
:10414000E80000209000002052482020203D20253B
:10415000322E3166205248005201002054454D5005
:10416000203D2025322E32662043000025322E329B
:10417000662025322E31662025342E31662000003F
:10418000A5000020EF0000203A474554202F72651B
:1041900073657400A80100203C68746D6C3E3C623D
:1041A0006F64793E53697374656D205265736574ED
:1041B0006C656E64693C2F626F64793E3C2F687455
:1041C0006D6C3E0041542B43495053454E443D30A5
:1041D0002C25750D0A0000000400FA0500ED00E032
:1041E000474554202F6C6564316F6E003C68746DD8
:1041F0006C3E3C626F64793E4C65642059616E642C
:10420000692E3C2F626F64793E3C2F68746D6C3E62
:1042100000000000474554202F6C6564316F6666CE
:10422000000000003C68746D6C3E3C626F64793E37
:104230004C656420536F6E64752E3C2F626F6479F9
:104240003E3C2F68746D6C3E0000000047455420D2
:104250002F6572726F727265736574003C68746D5D
:104260006C3E3C686561643E4861746120526573D0
:1042700065746C656E64693C2F686561643E3C2FB3
:1042800068746D6C3E000000474554202F776966C6
:1042900069726573657400003C68746D6C3E3C68BF
:1042A0006561643E574946492052657365746C6583
:1042B0006E64693C2F686561643E3C2F68746D6C68
:1042C0003E000000474554202F726573756C7400E2
:1042D00008010020040100200C010020F80000204B
:1042E000FF000020FE000020FD0000200001002053
:1042F000305900002001002088590000D200002021
:10430000FFF727F81BA800F050FAC4B221461BA8FB
:10431000FFF709F8FF21F5319E4800F027FA002049
:104320009D4908709D4908800FA800F03EFAC4B26C
:1043300021460FA8FEF7F7FF0120FDF70CFB66E40E
:1043400000BF9749896908460146954A116200BF36
:104350000121944A1170704793480068002802D1E7
:1043600001209249086090480068202803D100206D
:10437000C0438E49086001208D4908708B48006851
:104380008C49086001208C490870704700B500BF57
:104390008A484069024610468849C86100BF4815EE
:1043A0001040002801D0FFF7D7FF01208002104005
:1043B000002802D0012080490870202010400028E9
:1043C00002D001207E49087000BD00B5FFF7DEFF76
:1043D00000BD00B5FFF7DAFF00BD10B5794C042130
:1043E000204600F0CDF8012077490870E069774950
:1043F000087010BD10B50421754800F0C3F800BF67
:104400007348C069C0B26349644A12888854084638
:1044100062490988405C0A2818D160480088401E1B
:104420005C49085C0D2811D15C480088801E085C3E
:104430004B280BD159480088C01E085C4F2805D175
:1044400001206449087000205449088051485349AC
:104450000988405C4E2815D150480088401E4D49BF
:10446000085C4E280ED14D480088801E085C4F28FD
:1044700008D14A480088C01E085C432802D10120A8
:1044800045490870434845490988405C202809D1BE
:1044900042480088401E3F49085C3E2802D1012066
:1044A0004D4908703D480088401C3C49088010BDBB
:1044B00002204A49886100BF0120494908704948E3
:1044C0000088401C4749088047480088401C4649EE
:1044D000088046480078401CC0B2444908700A2849
:1044E00024D10020087042480078401CC0B24049E6
:1044F00008703C281AD1002008703E480078401C03
:10450000C0B23C4908703C2810D1002008703A48DD
:104510000078401CC0B238490870182806D1002025
:10452000087036480078401C3449087070470021F4
:1045300001E04A1CD1B28142FBDB70470246704762
:10454000C206D20E012191402D4A11607047C20669
:10455000D20E012191402B4A1160704710B5012203
:104560008A4024234343284C1B195A6110BD10B5BF
:1045700001228A4024234343234C1B191A6110BD96
:1045800081647047416370471449C9690143134A04
:10459000D1617047A8010020EF0000200201002037
:1045A00000200040740000205C000020700000200B
:1045B00056000020640000205400002000610040EC
:1045C0005800002000C4004010010020D700002047
:1045D00000400840EE000020D2000020000008400B
:1045E000D1000020F2000020D4000020F5000020BF
:1045F000FF000020FE000020FD0000200001002040
:1046000000E100E080E200E00060004030B50B46D1
:10461000014600202022012409E00D46D5409D429C
:1046200005D31D469540491B254695404019154622
:10463000521E002DF1DC30BD70B500242546002847
:1046400001DA01244042002901DA01254942FFF73D
:10465000DDFFAC4200D04042002C00D0494270BD8A
:10466000F0B51FB40646002082B0054640240191F3
:1046700000901BE0019922460F46304600F02AFACE
:10468000049A059B801A994110D310461946224678
:1046900000F010FA361A8F410197224601200021BE
:1046A000009F00F007FA38184D4100902046641E24
:1046B0000028DFDC019B00982946324607B0F0BD98
:1046C000F0B51FB486B000200090019002900698CB
:1046D000069980B204900798090C02040014114353
:1046E00007900027089D099806913E463C46039096
:1046F0000398A9B20204000C039004982D0C1543F2
:1047000048430021224600F0D5F9C7197141103401
:104710000E46402CECDB3846029A00F0CBF9009AAA
:10472000019B80180090594102980191103002902D
:104730004028CCDB00980BB0F0BD03460B439B0731
:1047400003D009E008C9121F08C0042AFAD203E006
:104750000B780370401C491C521EF9D27047D2B22C
:1047600001E00270401C491EFBD270470022F6E7B0
:1047700010B513460A4604461946FFF7F0FF2046D7
:1047800010BD30B505462A460B4610781C78521CE1
:104790005B1C002801D0A042F7D0002C03D00028D9
:1047A00002D06D1CEFE7284630BD421C0178401C4A
:1047B0000029FBD1801A7047F8B502464A40D40F51
:1047C00042004B0052085B089A4202D20246084659
:1047D00011464A0023D0C30D4A00DDB2120EAD1AB5
:1047E000202D35DA49020126490AF6058A19002CDE
:1047F00000D0524220214F1B1146B9402A411018C7
:10480000C20D9A4221D0002C17D0012D08DCDA0508
:10481000801AD20F8019D207DBB200F074F9F8BD0C
:10482000DA05801A012340001B06C01880185A427E
:104830008018CA0F1043490007E04908C207114316
:10484000DA05801A80194008801800F054F9F8BD84
:1048500061000122511A001BF7E70122D2075140E3
:10486000AAE70122D2075040A6E7024670B54A40A7
:10487000D30FDB0740002DD04A002AD0010E140EC2
:10488000000212020919400A520A8418E50104467E
:104890005443000A120A2E045043A4194219200C52
:1048A000C543AA18120C0125AD03521C521912045B
:1048B0007F39240400D0521C104301D44000491E0B
:1048C000C2B20C06C0092018401C4008802A02D041
:1048D00003E0002070BD40084000002900DA0020FD
:1048E000184370BD70B502464A40D50F40004A00DB
:1048F000ED0740085208002814D0002A12D0C40D39
:10490000D30D41020120C0055202490A520AE41A9D
:10491000091812187D34914201D3641C00E049004B
:10492000002C01DA002070BD0023914201D3891AC6
:104930000343400849000028F7D100290AD09142DA
:1049400002D10121C90705E0914201D2012101E014
:104950000121C943E005C018401900F0CCF870BD32
:10496000F0B51FB488B00B99099800244840099904
:10497000C00F490049080991C0070B9900904900F0
:1049800049080B9109990898A64608431CD00B9931
:104990000A98084318D0099801244000420D4800A5
:1049A000410D099824050003000B204309900B9842
:1049B0000003000B20430B9050181C4940180022A4
:1049C00001901446104605E0002001460DB0F0BDF0
:1049D000032801DA034600E003239C46C11A0AAE0D
:1049E0000AE05F0008ADED5B4F00F75B7D430027F9
:1049F000AA187C41491C5B1E6145F2DD410004ABF5
:104A00005A522104120C0A43240C401C0828DFDBF4
:104A1000019802900099704601910090059B049ABC
:104A20000799069800F0B5F8D0E700000DFCFFFFED
:104A3000C217C10F504010B54018CA079623002175
:104A400000F061F810BD10B500229623114600F069
:104A50005AF810BDC20FD207400040080BD0C10D5C
:104A60000723DB01C91840020905400A1143C208A7
:104A7000400711437047002001467047CB0FDB070A
:104A8000490010B5490802460A4307D00A0D072419
:104A90000903E401090B121B002A01DC002010BDF0
:104AA000C900440F0C43C100E018D205801800F083
:104AB00022F810BD10B5202A04DB0146203A9140AF
:104AC000002010BD914020239C1A0346E340194367
:104AD000904010BD10B5202A04DB0846203AD04093
:104AE000002110BD0B46D340D0402024A21A914093
:104AF0000843194610BD002904DA401C490001D1C1
:104B000040084000704770B40024050C05D1102403
:104B1000000402D1002921D01124050E01D1000288
:104B20000834050F01D10001241D850F01D180003B
:104B3000A41C002801DB4000641C002908D02025AB
:104B40002E1B0D46F540A14000D00121294308430A
:104B500001061B1B000ADB1D02D5002070BC70473C
:104B6000DB05181880180029F8DA401C4900F5D137
:104B700070BC40084000704710B5002B08DA0024D4
:104B8000401C614192185B411A4301D1400840002A
:104B900010BDF0B51FB482B005460C0003D0084626
:104BA00000F0E2F902E000F0DFF920300246009068
:104BB00021462846FFF77EFF049B059A04460F46D0
:104BC00018431143084314D0184610431BD00098D3
:104BD00040210A1A18460599FFF77CFF05460E4644
:104BE000009A05990498FFF765FF084305D0012056
:104BF00004E02046394607B0F0BD0020C117054348
:104C00000E432C43374300990E986305401A7905EB
:104C1000E40A00220C43FD0A0A3002D500200146B6
:104C2000E9E70105101969410C9C0D9D00196941C6
:104C3000FFF7A2FFDFE70000F0B50746084658403F
:104C400087B0C00F049048000E465900400849083C
:104C5000BC1A884105D2384631461E4617460B46D7
:104C600002465800400810434CD0300D03904005D8
:104C70005900400D490D0590401A0290402872DA03
:104C800018030121000B09050843019004980092C4
:104C9000002805D0019952420020884100920190DD
:104CA000029840210A1A01990098FFF703FF054670
:104CB0000C466B4607CB00F02FF9C0197141039ADF
:104CC0000E0D0023D71756401A467A40164344D09B
:104CD000049A002A2DD0029A012A039A15DC1205A3
:104CE000C01A914101263605001C7141D20F059E64
:104CF000D2070093019202962A462346FFF749FF06
:104D000007B0F0BD38463146FAE71605224A0F468D
:104D1000B218C01AB74101210905001C4F41001803
:104D20007F41114618187941E20F10436D19644113
:104D300013E0E2076D0815436408C2071443039AA1
:104D400001261205C01A91413605001C7141CE079B
:104D5000400830434908C01851412A462346FFF70E
:104D60000BFFCDE7FFE7049801224000C117121A9C
:104D700000238B4104983146C417381AA141EEE74D
:104D800030B40124E407634030BC55E730B401245B
:104D9000E407614030BC4FE70000E0FFF0B50C468F
:104DA0005C4085B0E40FE40703944C0000266408DF
:104DB00059009446490802460296224321D0624691
:104DC0000A431ED06200570D4A000E032303550DFF
:104DD000012402462C492405781B1B0B360B401876
:104DE00023432643614600901C46501AB44103D326
:104DF0000098401C009002E0921800985B41002847
:104E000003DA0020014605B0F0BD002001210905AC
:104E10000746864611E064461D46141BB54106D37D
:104E20006546521BB341744607430C43A646CD0763
:104E300040084908284392185B4105460D43EAD1D2
:104E40001046184313D0604619465040714008433D
:104E500006D06046101AB34106D20122002306E0B4
:104E600000220123DB0702E00122D2435310009805
:104E700074460105381C6141029C039D001969417B
:104E8000FFF77AFEBFE70000FD0300004A000903B8
:104E90000123090B1B0519430A4B10B5520D9A4209
:104EA00002DA0020014610BD064B34339A4203DC7F
:104EB0009A1AFFF70FFE10BD034BD218FFF7FAFD49
:104EC00010BD0000FF030000CDFBFFFF10B500295F
:104ED00004DB0124E40740428C412146002B04DB23
:104EE0001C460123DB075242A341994200D1904264
:104EF00010BD0000064C0125064E05E0E36807CC16
:104F00002B430C3C98471034B442F7D3FBF7C2F85C
:104F1000D8590000F859000010B5202A06DBCB173D
:104F20000846203A1041C1170B4306E00B461341D7
:104F3000D0402024A21A91400843194610BD000019
:104F40000FB410B504A9074B02AA039800F0FAF8B1
:104F5000044602A9002000F091FC204610BC08BCC9
:104F600004B018477D5800002021020C01D0102108
:104F70001046020A01D010460839020901D0104635
:104F8000091F820801D01046891E420801D0881EE0
:104F90007047081A704730B47446641E2578641C44
:104FA000AB4204D3635D5B00E31830BC18471D4679
:104FB000F8E702E008C8121F08C1002AFAD17047BA
:104FC0007047002001E001C1121F002AFBD1704789
:104FD000F0B51FB486B00998089A030D002102436A
:104FE00014D05148514A18185043051411980128FB
:104FF00010981AD0281A401C00264D4F4D49009693
:1050000001910490002812DA444211E01198012421
:1050100049A3012801D11098C1430698119A8460D0
:105020000360C26041600BB0F0BD4042E4E704465B
:10503000210500203F4A001C51410391029012E0DB
:10504000E00707D032463B4601990098FFF788FCFD
:105050000191009032463B4610461946FFF780FC0E
:1050600006460F466410002CEAD10498039B0028E2
:10507000029A0999089806DAFFF772FC019B009AD8
:10508000FFF76EFC05E0FFF789FE019B009AFFF732
:1050900085FE04460E460022284BFFF717FF03D873
:1050A0000020C043014607E00022254B2046314640
:1050B000FFF7C2FDFFF7EAFE102409E0002C0ADB2F
:1050C0000A220023FFF7CCFA079B30321A55641EE0
:1050D00002460A43F2D11122641C079B121B1C19C1
:1050E000119B012B03D0012308430ED10AE0084392
:1050F00004D0112010900020119077E71098151A15
:105100006D1E0BE01098824202DD00236D1C03E04F
:10511000824201DA00236D1E002BEED00698119911
:105120008260C16030C07EE701FCFFFF104D0000CF
:10513000000014400000F03F300000000000F04389
:105140000000E03FFFB597B00646002518E225288D
:1051500077D100242746FD49049400E00443761CDF
:1051600032780120203A90400842F7D130782A283E
:105170000ED00222307801463039092916D8049918
:105180000A235943303940181443761C0490F1E740
:10519000189802C804911890002904DA01204003ED
:1051A00004434842049002200443761C30782E28A1
:1051B00014D1042004437078761C2A2809D1189849
:1051C000761C80C8189009E00A214F43303FC71968
:1051D000761C3078014630390929F5D930786C28A9
:1051E00010D006DC4C281AD068280ED06A2817D1B7
:1051F00004E0742813D07A2812D110E00120400571
:1052000004430CE00121090501E0032109050C43D9
:105210007178814203D1012000052418761C761C88
:105220003078119066280BD013DC58287DD009DC2B
:1052300000287BD04528F6D04628F4D047281AD13C
:10524000A5E118E0632835D0642870D0652812D114
:105250009DE170286CD008DC6728F1D069287BD0EC
:105260006E280DD06F2806D1BAE073282ED075288D
:1052700071D0782859D01A9A199990476D1C7EE1FF
:105280006002400F022809D003280DD00428189886
:1052900001680DD00D60001D189070E11898EA1794
:1052A00001680D604A60F6E7189801680D80F2E722
:1052B0000D70F0E718986A4601781172001D189079
:1052C0000020507202A80090012005E0189802C842
:1052D000189000200091C04361070DD5002101E026
:1052E0000199491C0191B94212DA8142F8DB009A16
:1052F000515C0029F4D10BE0002101E00199491C27
:1053000001918142FADB019A0099895C0029F5D16B
:10531000019904981A9B471A21463846199A00F0B9
:1053200097FA0199401945180BE04FE02CE113E082
:105330004EE0009800990078491C00911A9A19993A
:1053400090470198401E0190401CF2D121463846FA
:105350001A9B199A10E137E00A2000210090019170
:105360006002410F022907D0189A01CA1892C21789
:105370009446032908D00AE01898C01DC108C90046
:1053800005C91891944607E000B2C2179446042953
:1053900002D140B2C1178C4600226146944506DA1C
:1053A0000A460021404291418C462D2102E0210510
:1053B00004D52B216A461173012103E0E10701D0D6
:1053C0002021F7E7029155E00A200AE0102008E0CA
:1053D000102000900021042004430191082703E0DD
:1053E00008200021019100906002410F022907D09E
:1053F000189A01CA189200229446032908D008E09E
:105400001898C01DC108C90005C91891944603E049
:1054100080B2042900D1C0B200210291210729D510
:105420001199702906D0009A1021019B4A401A4315
:1054300005D00EE040216A461173012108E0614663
:10544000014306D030216A4611731199517302212C
:105450000291009A0821019B4A401A430AD16146F1
:10546000014301D1610705D530216A46117301213D
:105470007F1E02911199582904D035A10E910DA9D2
:105480000D910DE037A1F9E76146019B009AFFF706
:10549000E7F80E9B8C469B5C0D9A521E0D92137082
:1054A00061460143F0D10D9805A9081A20300190FA
:1054B000600703D501200004844300E00127019820
:1054C000874201DD381A00E0002001990090411860
:1054D000029809180498401A0490E00306D4214663
:1054E0001A9B199A049800F0B3F94519002706E0B1
:1054F00003A81A9AC05D199990476D1C7F1C0298E9
:105500008742F5DBE0030CD521461A9B199A0498D3
:1055100000F09EF9451904E01A9A30201999904735
:105520006D1C0099481E00900029F5DC08E00D98DC
:105530000D990078491C0D911A9A199990476D1C84
:105540000199481E01900029F1DC63E1092801005E
:1055500030313233343536373839616263646566E9
:1055600000000000303132333435363738394142AB
:10557000434445460000000000F05AF94519761CE6
:105580003078002800D0E2E528461BB0F0BD600767
:1055900000D406271898C01DC108C90048680A68C9
:1055A0000831C30FDB071891190001D09CA108E056
:1055B000210501D59BA104E0E10701D09AA100E0FB
:1055C0009AA1430011985B08109165280CD006DC65
:1055D000452809D046281DD0472841D141E06628FA
:1055E00018D067283CD13CE00021112F01DB1120AD
:1055F00000E0781C0191009008A911A8FFF7E8FCD1
:10560000139905910021119A15927F1C1298019708
:10561000009150E00120C00703900120019008A9EB
:10562000009711A8FFF7D4FC139A14990592002251
:10563000119B009212981593059A0192002901D0AE
:10564000104602E0791C40180190381A01D50198E3
:1056500004E04042401E0090781C0190C01B029064
:1056600043E0012F00DA01270021112F01DD112075
:1056700000E038460191009008A911A8FFF7A8FCA6
:1056800013990591119A0021129815920091019792
:1056900021070CD40599B94201DB019900E0019181
:1056A000012904DD159A491E515C302906D0B84203
:1056B00001DA011D05DA0121029115E00199491E67
:1056C000EDE7002805DC0099411800910199091ABD
:1056D00003E0019A411C914200DD01910099401ABA
:1056E000401C02900120C0070390200706D40299B5
:1056F0000198814202DB0020C043029000206946ED
:10570000C87707AF012103980337C907884224D01F
:10571000022011902B201290039800280CDA4042AE
:1057200003902D20129007E00A210398FEF76EFFE8
:1057300030317F1E039039701199481E1190002955
:10574000F2DC03980028EFD1791E129808703078A7
:10575000202108404530BF1E387006A8C01BC01D60
:10576000039010980078002800D00120019941187A
:105770000298C0170918039809180498401A401E87
:105780000490E00306D421461A9B199A049800F06D
:105790005FF8451910980078002803D01A9A1999D3
:1057A00090476D1CE00324D521461A9B199A049852
:1057B00000F04EF845191CE00098002807DB00991E
:1057C0000598884203DD1598405C199901E0199904
:1057D00030201A9A904700986D1C401C0090029847
:1057E000401E0290002804D11A9A2E201999904741
:1057F0006D1C0199481E01900029DDDC05E0387818
:105800001A9A7F1C199990476D1C0399481E0390A2
:105810000029F4DC21461A9B199A0498ACE6000092
:105820002D0000002B000000200000000000000000
:10583000F8B5044600251E461746880404D405E042
:1058400039462020B0476D1C641EF9D52846F8BDA6
:10585000FFB50446002581B01E46C80301D5302798
:1058600000E02027880404D505E038460399B047B6
:105870006D1C641EF9D5284605B0F0BD0A68531C9E
:105880000B6010707047080911080000010000004B
:105890000000000002000000810000000400000081
:1058A000910000000800000001000000100000004E
:1058B0000300000020000000DFEF000040000000B7
:1058C0009FEF0000800000001907000000010000A9
:1058D00019060000000200001F0400000004000080
:1058E0001F02000000A000400001000000000000B6
:1058F00000000000486B0100000000000000001FD5
:1059000000000000050000000000000040420F0001
:10591000050100000000000000000000050000007C
:1059200000000000802500000000000001000100D0
:105930002025303275642530327568253032756D1A
:10594000253032757320536963616B6C696B3D253B
:10595000322E326620B043204E656D3D25322E3109
:105960006620524820426173696E633D25342E31B2
:1059700066206D4261722072657365743D307825D2
:1059800030347820000000003C68746D6C3E3C6848
:105990006561643E3C62723E3C7465787461726518
:1059A0006120636F6C733D223130302220726F773B
:1059B000733D2231223E25733C2F746578746172E9
:1059C00065613E3C2F62723E3C2F686561643E3CDF
:1059D0002F68746D6C3E0000F85900000000002034
:1059E00014010000B24F00000C5B00001401002005
:1059F0008C060000C24F0000010000000080000083
:105A000000000000004000000E1010110E04000005
:105A1000000C0404040E000A000E1111110E000007
:105A20000F100E011E04000A00111111110E0002C8
:105A3000060E1E0E06020000040404040404000006
:105A40001008040201000000000000000000010135
:105A50000000000000000000000000000000000046
:105A60000000000000000000010000000000000035
:105A70000000000000000000000000000000000026
:105A80000000000000000000000000000000000016
:105A900000000000000000000000000000476F6BE5
:105AA00068616E204172736C616E62617961610040
:105AB00000000000000000000000000000000000E6
:105AC00000000000000000000000000000000000D6
:105AD00000000000000000000000000000000000C6
